{
  "address": "0xe7f1725E7734CE288F8367e1Bb143E90bb3F0512",
  "abi": [
    {
      "inputs": [
        {
          "internalType": "address",
          "name": "priceFeedAddress",
          "type": "address"
        }
      ],
      "stateMutability": "nonpayable",
      "type": "constructor"
    },
    {
      "inputs": [],
      "name": "FundMe__NotEnoughMoneySent",
      "type": "error"
    },
    {
      "inputs": [],
      "name": "FundMe__NotOwner",
      "type": "error"
    },
    {
      "inputs": [],
      "name": "FundMe__TransferFailed",
      "type": "error"
    },
    {
      "stateMutability": "payable",
      "type": "fallback"
    },
    {
      "inputs": [],
      "name": "MINIMUM_USD",
      "outputs": [
        {
          "internalType": "uint256",
          "name": "",
          "type": "uint256"
        }
      ],
      "stateMutability": "view",
      "type": "function"
    },
    {
      "inputs": [],
      "name": "fund",
      "outputs": [],
      "stateMutability": "payable",
      "type": "function"
    },
    {
      "inputs": [
        {
          "internalType": "address",
          "name": "funder",
          "type": "address"
        }
      ],
      "name": "getAddressToAmountFunded",
      "outputs": [
        {
          "internalType": "uint256",
          "name": "",
          "type": "uint256"
        }
      ],
      "stateMutability": "view",
      "type": "function"
    },
    {
      "inputs": [
        {
          "internalType": "uint256",
          "name": "index",
          "type": "uint256"
        }
      ],
      "name": "getFunder",
      "outputs": [
        {
          "internalType": "address",
          "name": "",
          "type": "address"
        }
      ],
      "stateMutability": "view",
      "type": "function"
    },
    {
      "inputs": [],
      "name": "getOwner",
      "outputs": [
        {
          "internalType": "address",
          "name": "",
          "type": "address"
        }
      ],
      "stateMutability": "view",
      "type": "function"
    },
    {
      "inputs": [],
      "name": "getPriceFeed",
      "outputs": [
        {
          "internalType": "contract AggregatorV3Interface",
          "name": "",
          "type": "address"
        }
      ],
      "stateMutability": "view",
      "type": "function"
    },
    {
      "inputs": [],
      "name": "withdraw",
      "outputs": [],
      "stateMutability": "nonpayable",
      "type": "function"
    },
    {
      "stateMutability": "payable",
      "type": "receive"
    }
  ],
  "transactionHash": "0x5d92db064c7e6eda26ca0930a84acc70e559354693d93c643ebbdd13b7304f67",
  "args": [
    "0x5FbDB2315678afecb367f032d93F642f64180aa3"
  ],
  "numDeployments": 1,
  "solcInputHash": "e008ed99741dcce04a950883fdba95d9",
  "bytecode": "0x60a060405234801561001057600080fd5b50604051610eb4380380610eb48339818101604052810190610032919061010f565b3373ffffffffffffffffffffffffffffffffffffffff1660808173ffffffffffffffffffffffffffffffffffffffff1681525050806000806101000a81548173ffffffffffffffffffffffffffffffffffffffff021916908373ffffffffffffffffffffffffffffffffffffffff1602179055505061013c565b600080fd5b600073ffffffffffffffffffffffffffffffffffffffff82169050919050565b60006100dc826100b1565b9050919050565b6100ec816100d1565b81146100f757600080fd5b50565b600081519050610109816100e3565b92915050565b600060208284031215610125576101246100ac565b5b6000610133848285016100fa565b91505092915050565b608051610d4f610165600039600081816103240152818161051501526105e90152610d4f6000f3fe6080604052600436106100745760003560e01c8063893d20e81161004e578063893d20e81461010c5780639e87a5cd14610137578063b60d428814610162578063d7b4750c1461016c57610083565b80630343fb251461008d5780633ccfd60b146100ca5780636b69a592146100e157610083565b36610083576100816101a9565b005b61008b6101a9565b005b34801561009957600080fd5b506100b460048036038101906100af919061084a565b6102d9565b6040516100c19190610890565b60405180910390f35b3480156100d657600080fd5b506100df610322565b005b3480156100ed57600080fd5b506100f66105d8565b6040516101039190610890565b60405180910390f35b34801561011857600080fd5b506101216105e5565b60405161012e91906108ba565b60405180910390f35b34801561014357600080fd5b5061014c61060d565b6040516101599190610934565b60405180910390f35b61016a6101a9565b005b34801561017857600080fd5b50610193600480360381019061018e919061097b565b610636565b6040516101a091906108ba565b60405180910390f35b6802b5e3af16b18800006101e660008054906101000a900473ffffffffffffffffffffffffffffffffffffffff163461067e90919063ffffffff16565b101561021e576040517fa27f04be00000000000000000000000000000000000000000000000000000000815260040160405180910390fd5b6001339080600181540180825580915050600190039060005260206000200160009091909190916101000a81548173ffffffffffffffffffffffffffffffffffffffff021916908373ffffffffffffffffffffffffffffffffffffffff16021790555034600260003373ffffffffffffffffffffffffffffffffffffffff1673ffffffffffffffffffffffffffffffffffffffff16815260200190815260200160002060008282546102d091906109d7565b92505081905550565b6000600260008373ffffffffffffffffffffffffffffffffffffffff1673ffffffffffffffffffffffffffffffffffffffff168152602001908152602001600020549050919050565b7f000000000000000000000000000000000000000000000000000000000000000073ffffffffffffffffffffffffffffffffffffffff163373ffffffffffffffffffffffffffffffffffffffff16146103a7576040517f579610db00000000000000000000000000000000000000000000000000000000815260040160405180910390fd5b6000600180548060200260200160405190810160405280929190818152602001828054801561042b57602002820191906000526020600020905b8160009054906101000a900473ffffffffffffffffffffffffffffffffffffffff1673ffffffffffffffffffffffffffffffffffffffff16815260200190600101908083116103e1575b5050505050905060005b81518110156104b05760006002600084848151811061045757610456610a0b565b5b602002602001015173ffffffffffffffffffffffffffffffffffffffff1673ffffffffffffffffffffffffffffffffffffffff1681526020019081526020016000208190555080806104a890610a3a565b915050610435565b50600067ffffffffffffffff8111156104cc576104cb610a82565b5b6040519080825280602002602001820160405280156104fa5781602001602082028036833780820191505090505b5060019080519060200190610510929190610740565b5060007f000000000000000000000000000000000000000000000000000000000000000073ffffffffffffffffffffffffffffffffffffffff164760405161055790610ae2565b60006040518083038185875af1925050503d8060008114610594576040519150601f19603f3d011682016040523d82523d6000602084013e610599565b606091505b50509050806105d4576040517fb0f7411400000000000000000000000000000000000000000000000000000000815260040160405180910390fd5b5050565b6802b5e3af16b188000081565b60007f0000000000000000000000000000000000000000000000000000000000000000905090565b60008060009054906101000a900473ffffffffffffffffffffffffffffffffffffffff16905090565b60006001828154811061064c5761064b610a0b565b5b9060005260206000200160009054906101000a900473ffffffffffffffffffffffffffffffffffffffff169050919050565b6000670de0b6b3a7640000610692836106af565b8461069d9190610af7565b6106a79190610b68565b905092915050565b6000808273ffffffffffffffffffffffffffffffffffffffff1663feaf968c6040518163ffffffff1660e01b815260040160a060405180830381865afa1580156106fd573d6000803e3d6000fd5b505050506040513d601f19601f820116820180604052508101906107219190610c26565b5050509150506402540be400816107389190610ca1565b915050919050565b8280548282559060005260206000209081019282156107b9579160200282015b828111156107b85782518260006101000a81548173ffffffffffffffffffffffffffffffffffffffff021916908373ffffffffffffffffffffffffffffffffffffffff16021790555091602001919060010190610760565b5b5090506107c691906107ca565b5090565b5b808211156107e35760008160009055506001016107cb565b5090565b600080fd5b600073ffffffffffffffffffffffffffffffffffffffff82169050919050565b6000610817826107ec565b9050919050565b6108278161080c565b811461083257600080fd5b50565b6000813590506108448161081e565b92915050565b6000602082840312156108605761085f6107e7565b5b600061086e84828501610835565b91505092915050565b6000819050919050565b61088a81610877565b82525050565b60006020820190506108a56000830184610881565b92915050565b6108b48161080c565b82525050565b60006020820190506108cf60008301846108ab565b92915050565b6000819050919050565b60006108fa6108f56108f0846107ec565b6108d5565b6107ec565b9050919050565b600061090c826108df565b9050919050565b600061091e82610901565b9050919050565b61092e81610913565b82525050565b60006020820190506109496000830184610925565b92915050565b61095881610877565b811461096357600080fd5b50565b6000813590506109758161094f565b92915050565b600060208284031215610991576109906107e7565b5b600061099f84828501610966565b91505092915050565b7f4e487b7100000000000000000000000000000000000000000000000000000000600052601160045260246000fd5b60006109e282610877565b91506109ed83610877565b9250828201905080821115610a0557610a046109a8565b5b92915050565b7f4e487b7100000000000000000000000000000000000000000000000000000000600052603260045260246000fd5b6000610a4582610877565b91507fffffffffffffffffffffffffffffffffffffffffffffffffffffffffffffffff8203610a7757610a766109a8565b5b600182019050919050565b7f4e487b7100000000000000000000000000000000000000000000000000000000600052604160045260246000fd5b600081905092915050565b50565b6000610acc600083610ab1565b9150610ad782610abc565b600082019050919050565b6000610aed82610abf565b9150819050919050565b6000610b0282610877565b9150610b0d83610877565b9250828202610b1b81610877565b91508282048414831517610b3257610b316109a8565b5b5092915050565b7f4e487b7100000000000000000000000000000000000000000000000000000000600052601260045260246000fd5b6000610b7382610877565b9150610b7e83610877565b925082610b8e57610b8d610b39565b5b828204905092915050565b600069ffffffffffffffffffff82169050919050565b610bb881610b99565b8114610bc357600080fd5b50565b600081519050610bd581610baf565b92915050565b6000819050919050565b610bee81610bdb565b8114610bf957600080fd5b50565b600081519050610c0b81610be5565b92915050565b600081519050610c208161094f565b92915050565b600080600080600060a08688031215610c4257610c416107e7565b5b6000610c5088828901610bc6565b9550506020610c6188828901610bfc565b9450506040610c7288828901610c11565b9350506060610c8388828901610c11565b9250506080610c9488828901610bc6565b9150509295509295909350565b6000610cac82610bdb565b9150610cb783610bdb565b9250828202610cc581610bdb565b91507f80000000000000000000000000000000000000000000000000000000000000008414600084121615610cfd57610cfc6109a8565b5b8282058414831517610d1257610d116109a8565b5b509291505056fea2646970667358221220b48db9b4c3784405ec20f0e420d0d53a75b436d9cd3054e2ffd231f2d2f32fb064736f6c63430008110033",
  "devdoc": {
    "author": "Sravan",
    "details": "This impements price feeds as library",
    "kind": "dev",
    "methods": {},
    "title": "Contract for Crowd Funding",
    "version": 1
  },
  "userdoc": {
    "kind": "user",
    "methods": {
      "fund()": {
        "notice": "This function funds this contract"
      },
      "withdraw()": {
        "notice": "This function allow owner of the contract to withdraw funds"
      }
    },
    "notice": "This is a sample crowd funding contract",
    "version": 1
  },
  "storageLayout": {
    "storage": [
      {
        "astId": 68,
        "contract": "contracts/FundMe.sol:FundMe",
        "label": "s_priceFeed",
        "offset": 0,
        "slot": "0",
        "type": "t_contract(AggregatorV3Interface)45"
      },
      {
        "astId": 71,
        "contract": "contracts/FundMe.sol:FundMe",
        "label": "s_funders",
        "offset": 0,
        "slot": "1",
        "type": "t_array(t_address)dyn_storage"
      },
      {
        "astId": 75,
        "contract": "contracts/FundMe.sol:FundMe",
        "label": "s_addressToAmount",
        "offset": 0,
        "slot": "2",
        "type": "t_mapping(t_address,t_uint256)"
      }
    ],
    "types": {
      "t_address": {
        "encoding": "inplace",
        "label": "address",
        "numberOfBytes": "20"
      },
      "t_array(t_address)dyn_storage": {
        "base": "t_address",
        "encoding": "dynamic_array",
        "label": "address[]",
        "numberOfBytes": "32"
      },
      "t_contract(AggregatorV3Interface)45": {
        "encoding": "inplace",
        "label": "contract AggregatorV3Interface",
        "numberOfBytes": "20"
      },
      "t_mapping(t_address,t_uint256)": {
        "encoding": "mapping",
        "key": "t_address",
        "label": "mapping(address => uint256)",
        "numberOfBytes": "32",
        "value": "t_uint256"
      },
      "t_uint256": {
        "encoding": "inplace",
        "label": "uint256",
        "numberOfBytes": "32"
      }
    }
  }
}