{
  "address": "0xaB7a9156975a6B3a6CA6DFAedA553477b55ED4C7",
  "abi": [
    {
      "inputs": [
        {
          "internalType": "address",
          "name": "priceFeedAddress",
          "type": "address"
        }
      ],
      "stateMutability": "nonpayable",
      "type": "constructor"
    },
    {
      "inputs": [],
      "name": "NotEnoughMoneySent",
      "type": "error"
    },
    {
      "inputs": [],
      "name": "NotOwner",
      "type": "error"
    },
    {
      "inputs": [],
      "name": "TransferFailed",
      "type": "error"
    },
    {
      "stateMutability": "payable",
      "type": "fallback"
    },
    {
      "inputs": [],
      "name": "MINIMUM_USD",
      "outputs": [
        {
          "internalType": "uint256",
          "name": "",
          "type": "uint256"
        }
      ],
      "stateMutability": "view",
      "type": "function"
    },
    {
      "inputs": [
        {
          "internalType": "address",
          "name": "",
          "type": "address"
        }
      ],
      "name": "addressToAmount",
      "outputs": [
        {
          "internalType": "uint256",
          "name": "",
          "type": "uint256"
        }
      ],
      "stateMutability": "view",
      "type": "function"
    },
    {
      "inputs": [],
      "name": "fund",
      "outputs": [],
      "stateMutability": "payable",
      "type": "function"
    },
    {
      "inputs": [
        {
          "internalType": "uint256",
          "name": "",
          "type": "uint256"
        }
      ],
      "name": "funders",
      "outputs": [
        {
          "internalType": "address",
          "name": "",
          "type": "address"
        }
      ],
      "stateMutability": "view",
      "type": "function"
    },
    {
      "inputs": [],
      "name": "i_owner",
      "outputs": [
        {
          "internalType": "address payable",
          "name": "",
          "type": "address"
        }
      ],
      "stateMutability": "view",
      "type": "function"
    },
    {
      "inputs": [],
      "name": "priceFeed",
      "outputs": [
        {
          "internalType": "contract AggregatorV3Interface",
          "name": "",
          "type": "address"
        }
      ],
      "stateMutability": "view",
      "type": "function"
    },
    {
      "inputs": [],
      "name": "withdraw",
      "outputs": [],
      "stateMutability": "nonpayable",
      "type": "function"
    },
    {
      "stateMutability": "payable",
      "type": "receive"
    }
  ],
  "transactionHash": "0xa63f5a9dfbdffd1d40e2a46b7da4d56347783886fef34f45262495a60ced4ebb",
  "args": [
    "0xD4a33860578De61DBAbDc8BFdb98FD742fA7028e"
  ],
  "numDeployments": 1,
  "solcInputHash": "becc6dfde31d28a7090db9c70895e58c",
  "bytecode": "0x60a060405234801561001057600080fd5b50604051610e49380380610e498339818101604052810190610032919061010f565b3373ffffffffffffffffffffffffffffffffffffffff1660808173ffffffffffffffffffffffffffffffffffffffff1681525050806000806101000a81548173ffffffffffffffffffffffffffffffffffffffff021916908373ffffffffffffffffffffffffffffffffffffffff1602179055505061013c565b600080fd5b600073ffffffffffffffffffffffffffffffffffffffff82169050919050565b60006100dc826100b1565b9050919050565b6100ec816100d1565b81146100f757600080fd5b50565b600081519050610109816100e3565b92915050565b600060208284031215610125576101246100ac565b5b6000610133848285016100fa565b91505092915050565b608051610ce4610165600039600081816102f30152818161048101526105760152610ce46000f3fe6080604052600436106100745760003560e01c8063741bef1a1161004e578063741bef1a1461010c578063b60d428814610137578063dba6335f14610141578063dc0d3dff1461016c57610083565b80633c7e7d281461008d5780633ccfd60b146100ca5780636b69a592146100e157610083565b36610083576100816101a9565b005b61008b6101a9565b005b34801561009957600080fd5b506100b460048036038101906100af91906107a3565b6102d9565b6040516100c191906107e9565b60405180910390f35b3480156100d657600080fd5b506100df6102f1565b005b3480156100ed57600080fd5b506100f6610543565b60405161010391906107e9565b60405180910390f35b34801561011857600080fd5b50610121610550565b60405161012e9190610863565b60405180910390f35b61013f6101a9565b005b34801561014d57600080fd5b50610156610574565b604051610163919061089f565b60405180910390f35b34801561017857600080fd5b50610193600480360381019061018e91906108e6565b610598565b6040516101a09190610922565b60405180910390f35b6802b5e3af16b18800006101e660008054906101000a900473ffffffffffffffffffffffffffffffffffffffff16346105d790919063ffffffff16565b101561021e576040517f0249ecab00000000000000000000000000000000000000000000000000000000815260040160405180910390fd5b6001339080600181540180825580915050600190039060005260206000200160009091909190916101000a81548173ffffffffffffffffffffffffffffffffffffffff021916908373ffffffffffffffffffffffffffffffffffffffff16021790555034600260003373ffffffffffffffffffffffffffffffffffffffff1673ffffffffffffffffffffffffffffffffffffffff16815260200190815260200160002060008282546102d0919061096c565b92505081905550565b60026020528060005260406000206000915090505481565b7f000000000000000000000000000000000000000000000000000000000000000073ffffffffffffffffffffffffffffffffffffffff163373ffffffffffffffffffffffffffffffffffffffff1614610376576040517f30cd747100000000000000000000000000000000000000000000000000000000815260040160405180910390fd5b60005b60018054905081101561041c57600060026000600184815481106103a05761039f6109a0565b5b9060005260206000200160009054906101000a900473ffffffffffffffffffffffffffffffffffffffff1673ffffffffffffffffffffffffffffffffffffffff1673ffffffffffffffffffffffffffffffffffffffff168152602001908152602001600020819055508080610414906109cf565b915050610379565b50600067ffffffffffffffff81111561043857610437610a17565b5b6040519080825280602002602001820160405280156104665781602001602082028036833780820191505090505b506001908051906020019061047c929190610699565b5060007f000000000000000000000000000000000000000000000000000000000000000073ffffffffffffffffffffffffffffffffffffffff16476040516104c390610a77565b60006040518083038185875af1925050503d8060008114610500576040519150601f19603f3d011682016040523d82523d6000602084013e610505565b606091505b5050905080610540576040517f90b8ec1800000000000000000000000000000000000000000000000000000000815260040160405180910390fd5b50565b6802b5e3af16b188000081565b60008054906101000a900473ffffffffffffffffffffffffffffffffffffffff1681565b7f000000000000000000000000000000000000000000000000000000000000000081565b600181815481106105a857600080fd5b906000526020600020016000915054906101000a900473ffffffffffffffffffffffffffffffffffffffff1681565b6000670de0b6b3a76400006105eb83610608565b846105f69190610a8c565b6106009190610afd565b905092915050565b6000808273ffffffffffffffffffffffffffffffffffffffff1663feaf968c6040518163ffffffff1660e01b815260040160a060405180830381865afa158015610656573d6000803e3d6000fd5b505050506040513d601f19601f8201168201806040525081019061067a9190610bbb565b5050509150506402540be400816106919190610c36565b915050919050565b828054828255906000526020600020908101928215610712579160200282015b828111156107115782518260006101000a81548173ffffffffffffffffffffffffffffffffffffffff021916908373ffffffffffffffffffffffffffffffffffffffff160217905550916020019190600101906106b9565b5b50905061071f9190610723565b5090565b5b8082111561073c576000816000905550600101610724565b5090565b600080fd5b600073ffffffffffffffffffffffffffffffffffffffff82169050919050565b600061077082610745565b9050919050565b61078081610765565b811461078b57600080fd5b50565b60008135905061079d81610777565b92915050565b6000602082840312156107b9576107b8610740565b5b60006107c78482850161078e565b91505092915050565b6000819050919050565b6107e3816107d0565b82525050565b60006020820190506107fe60008301846107da565b92915050565b6000819050919050565b600061082961082461081f84610745565b610804565b610745565b9050919050565b600061083b8261080e565b9050919050565b600061084d82610830565b9050919050565b61085d81610842565b82525050565b60006020820190506108786000830184610854565b92915050565b600061088982610745565b9050919050565b6108998161087e565b82525050565b60006020820190506108b46000830184610890565b92915050565b6108c3816107d0565b81146108ce57600080fd5b50565b6000813590506108e0816108ba565b92915050565b6000602082840312156108fc576108fb610740565b5b600061090a848285016108d1565b91505092915050565b61091c81610765565b82525050565b60006020820190506109376000830184610913565b92915050565b7f4e487b7100000000000000000000000000000000000000000000000000000000600052601160045260246000fd5b6000610977826107d0565b9150610982836107d0565b925082820190508082111561099a5761099961093d565b5b92915050565b7f4e487b7100000000000000000000000000000000000000000000000000000000600052603260045260246000fd5b60006109da826107d0565b91507fffffffffffffffffffffffffffffffffffffffffffffffffffffffffffffffff8203610a0c57610a0b61093d565b5b600182019050919050565b7f4e487b7100000000000000000000000000000000000000000000000000000000600052604160045260246000fd5b600081905092915050565b50565b6000610a61600083610a46565b9150610a6c82610a51565b600082019050919050565b6000610a8282610a54565b9150819050919050565b6000610a97826107d0565b9150610aa2836107d0565b9250828202610ab0816107d0565b91508282048414831517610ac757610ac661093d565b5b5092915050565b7f4e487b7100000000000000000000000000000000000000000000000000000000600052601260045260246000fd5b6000610b08826107d0565b9150610b13836107d0565b925082610b2357610b22610ace565b5b828204905092915050565b600069ffffffffffffffffffff82169050919050565b610b4d81610b2e565b8114610b5857600080fd5b50565b600081519050610b6a81610b44565b92915050565b6000819050919050565b610b8381610b70565b8114610b8e57600080fd5b50565b600081519050610ba081610b7a565b92915050565b600081519050610bb5816108ba565b92915050565b600080600080600060a08688031215610bd757610bd6610740565b5b6000610be588828901610b5b565b9550506020610bf688828901610b91565b9450506040610c0788828901610ba6565b9350506060610c1888828901610ba6565b9250506080610c2988828901610b5b565b9150509295509295909350565b6000610c4182610b70565b9150610c4c83610b70565b9250828202610c5a81610b70565b91507f80000000000000000000000000000000000000000000000000000000000000008414600084121615610c9257610c9161093d565b5b8282058414831517610ca757610ca661093d565b5b509291505056fea264697066735822122065e19600825c2e51ec0c80cf863ee9e2fae87ba0fd5504ff3446437603b189ed64736f6c63430008110033",
  "devdoc": {
    "kind": "dev",
    "methods": {},
    "version": 1
  },
  "userdoc": {
    "kind": "user",
    "methods": {},
    "version": 1
  },
  "storageLayout": {
    "storage": [
      {
        "astId": 67,
        "contract": "contracts/FundMe.sol:FundMe",
        "label": "priceFeed",
        "offset": 0,
        "slot": "0",
        "type": "t_contract(AggregatorV3Interface)45"
      },
      {
        "astId": 90,
        "contract": "contracts/FundMe.sol:FundMe",
        "label": "funders",
        "offset": 0,
        "slot": "1",
        "type": "t_array(t_address)dyn_storage"
      },
      {
        "astId": 94,
        "contract": "contracts/FundMe.sol:FundMe",
        "label": "addressToAmount",
        "offset": 0,
        "slot": "2",
        "type": "t_mapping(t_address,t_uint256)"
      }
    ],
    "types": {
      "t_address": {
        "encoding": "inplace",
        "label": "address",
        "numberOfBytes": "20"
      },
      "t_array(t_address)dyn_storage": {
        "base": "t_address",
        "encoding": "dynamic_array",
        "label": "address[]",
        "numberOfBytes": "32"
      },
      "t_contract(AggregatorV3Interface)45": {
        "encoding": "inplace",
        "label": "contract AggregatorV3Interface",
        "numberOfBytes": "20"
      },
      "t_mapping(t_address,t_uint256)": {
        "encoding": "mapping",
        "key": "t_address",
        "label": "mapping(address => uint256)",
        "numberOfBytes": "32",
        "value": "t_uint256"
      },
      "t_uint256": {
        "encoding": "inplace",
        "label": "uint256",
        "numberOfBytes": "32"
      }
    }
  }
}